:04000000B6EF3FF028
:107F6C000001B9EF3FF0000E926E000E936E000E02
:107F7C00946E00D089688A688B68000E026E000EC1
:107F8C00016E800E015C3E0E0258D8A001D001D0CB
:107F9C0002D00CD00BD0014A022A800E015C3E0E9E
:107FAC000258D8A001D001D0F6D700D0000E896EAF
:107FBC00000E8A6E000E8B6E000E026E000E016EAD
:107FCC00800E015C3E0E0258D8A001D001D002D028
:107FDC00D1D7D0D7014A022A800E015C3E0E02583E
:107FEC00D8A001D001D0F6D7C5D7C4D7C3D7FFD7F7
:047FFC0000EF00F0A2
:020000040030CA
:020001000900F4
:00000001FF
