:020000040000FA
:1000000064EF00F0E00EF66E000EF76E000EF86E74
:100010000900F550056E0900F550066E055002E125
:1000200006503BE00900F550006E0900F550016EE6
:100030000900F550026E09000900F550E96E09004B
:10004000F550EA6E090009000900F550036E090039
:10005000F550046E09000900F6CF07F0F7CF08F05D
:10006000F8CF09F000C0F6FF01C0F7FF02C0F8FFAB
:10007000035002E1045007E00900F550EE6E03065C
:10008000F8E20406F9D707C0F6FF08C0F7FF09C079
:10009000F8FF0506C4E20606C5D71200926A936A05
:1000A000946AFF0E891AFF0E8A1AFF0E8B1AE80E49
:1000B000006E030E016EFF0E0026D8A00106005050
:1000C0000110F9E1EED7120011EEFFF021EEFFF082
:1000D000F86AA68EA69C02EC00F04EEC00F0FFD76A
:1000E0000100EE00000060000000010000000000C0
:020000040030CA
:0E000000FFF0FFFFFFFFFFFFFFFFFFFFFFFF0F
:00000001FF
