:020000040000FA
:1000000084EF00F0200EF66E010EF76E000EF86E13
:100010000900F550056E0900F550066E055002E125
:1000200006503BE00900F550006E0900F550016EE6
:100030000900F550026E09000900F550E96E09004B
:10004000F550EA6E090009000900F550036E090039
:10005000F550046E09000900F6CF07F0F7CF08F05D
:10006000F8CF09F000C0F6FF01C0F7FF02C0F8FFAB
:10007000035002E1045007E00900F550EE6E03065C
:10008000F8E20406F9D707C0F6FF08C0F7FF09C079
:10009000F8FF0506C4E20606C5D71200926A936A05
:1000A000946AFF0E896EFF0E8A6EFF0E8B6E800EB5
:1000B0000001606F3E0E0001616FFF0E00016027BE
:1000C00002E2000161070001605100016111F5E1E8
:1000D000896A8A6A8B6A800E0001606F3E0E000199
:1000E000616FFF0E0001602702E20001610700015D
:1000F000605100016111F5E1800E0001606F3E0E5C
:100100000001616FCED7120011EEFFF021EEFFF07B
:10011000F86AA68EA69C02EC00F04EEC00F0FFD729
:1001200001002E010000620000000100000000003C
:00000001FF
